{
  "_format": "hh-sol-artifact-1",
  "contractName": "Lottery",
  "sourceName": "contracts/Lottery.sol",
  "abi": [
    {
      "inputs": [
        {
          "internalType": "address",
          "name": "_vrfCoordinator",
          "type": "address"
        },
        {
          "internalType": "uint256",
          "name": "_lotteryEntryFee",
          "type": "uint256"
        },
        {
          "internalType": "uint256",
          "name": "_subscriptionId",
          "type": "uint256"
        },
        {
          "internalType": "bytes32",
          "name": "_keyHash",
          "type": "bytes32"
        },
        {
          "internalType": "uint32",
          "name": "_callbackGasLimit",
          "type": "uint32"
        },
        {
          "internalType": "uint256",
          "name": "_interval",
          "type": "uint256"
        },
        {
          "internalType": "uint8",
          "name": "_min_NoOfPlayers",
          "type": "uint8"
        }
      ],
      "stateMutability": "nonpayable",
      "type": "constructor"
    },
    {
      "inputs": [],
      "name": "InvalidEntryFee",
      "type": "error"
    },
    {
      "inputs": [],
      "name": "InvalidInterval",
      "type": "error"
    },
    {
      "inputs": [],
      "name": "InvalidOwnerAddress",
      "type": "error"
    },
    {
      "inputs": [],
      "name": "LotteryNotOpen",
      "type": "error"
    },
    {
      "inputs": [],
      "name": "NotEnoughETH",
      "type": "error"
    },
    {
      "inputs": [
        {
          "internalType": "address",
          "name": "have",
          "type": "address"
        },
        {
          "internalType": "address",
          "name": "want",
          "type": "address"
        }
      ],
      "name": "OnlyCoordinatorCanFulfill",
      "type": "error"
    },
    {
      "inputs": [
        {
          "internalType": "address",
          "name": "have",
          "type": "address"
        },
        {
          "internalType": "address",
          "name": "owner",
          "type": "address"
        },
        {
          "internalType": "address",
          "name": "coordinator",
          "type": "address"
        }
      ],
      "name": "OnlyOwnerOrCoordinator",
      "type": "error"
    },
    {
      "inputs": [],
      "name": "TransferFailed",
      "type": "error"
    },
    {
      "inputs": [],
      "name": "UpkeepNotNeeded",
      "type": "error"
    },
    {
      "inputs": [],
      "name": "ZeroAddress",
      "type": "error"
    },
    {
      "anonymous": false,
      "inputs": [
        {
          "indexed": false,
          "internalType": "address",
          "name": "vrfCoordinator",
          "type": "address"
        }
      ],
      "name": "CoordinatorSet",
      "type": "event"
    },
    {
      "anonymous": false,
      "inputs": [
        {
          "indexed": true,
          "internalType": "address",
          "name": "player",
          "type": "address"
        }
      ],
      "name": "LotteryEnter",
      "type": "event"
    },
    {
      "anonymous": false,
      "inputs": [
        {
          "indexed": true,
          "internalType": "address",
          "name": "from",
          "type": "address"
        },
        {
          "indexed": true,
          "internalType": "address",
          "name": "to",
          "type": "address"
        }
      ],
      "name": "OwnershipTransferRequested",
      "type": "event"
    },
    {
      "anonymous": false,
      "inputs": [
        {
          "indexed": true,
          "internalType": "address",
          "name": "from",
          "type": "address"
        },
        {
          "indexed": true,
          "internalType": "address",
          "name": "to",
          "type": "address"
        }
      ],
      "name": "OwnershipTransferred",
      "type": "event"
    },
    {
      "anonymous": false,
      "inputs": [
        {
          "indexed": true,
          "internalType": "uint256",
          "name": "requestId",
          "type": "uint256"
        }
      ],
      "name": "RequestedLotteryWinner",
      "type": "event"
    },
    {
      "anonymous": false,
      "inputs": [
        {
          "indexed": true,
          "internalType": "address",
          "name": "winner",
          "type": "address"
        }
      ],
      "name": "WinnerPicked",
      "type": "event"
    },
    {
      "inputs": [],
      "name": "acceptOwnership",
      "outputs": [],
      "stateMutability": "nonpayable",
      "type": "function"
    },
    {
      "inputs": [
        {
          "internalType": "address",
          "name": "newOwner",
          "type": "address"
        }
      ],
      "name": "changeOwner",
      "outputs": [],
      "stateMutability": "nonpayable",
      "type": "function"
    },
    {
      "inputs": [
        {
          "internalType": "bytes",
          "name": "",
          "type": "bytes"
        }
      ],
      "name": "checkUpkeep",
      "outputs": [
        {
          "internalType": "bool",
          "name": "upkeepNeeded",
          "type": "bool"
        },
        {
          "internalType": "bytes",
          "name": "",
          "type": "bytes"
        }
      ],
      "stateMutability": "view",
      "type": "function"
    },
    {
      "inputs": [],
      "name": "emergencyWithdraw",
      "outputs": [],
      "stateMutability": "nonpayable",
      "type": "function"
    },
    {
      "inputs": [],
      "name": "enterLottery",
      "outputs": [],
      "stateMutability": "payable",
      "type": "function"
    },
    {
      "inputs": [],
      "name": "getAllRecentWinners",
      "outputs": [
        {
          "internalType": "address[]",
          "name": "",
          "type": "address[]"
        }
      ],
      "stateMutability": "view",
      "type": "function"
    },
    {
      "inputs": [],
      "name": "getContractBalance",
      "outputs": [
        {
          "internalType": "uint256",
          "name": "",
          "type": "uint256"
        }
      ],
      "stateMutability": "view",
      "type": "function"
    },
    {
      "inputs": [],
      "name": "getInterval",
      "outputs": [
        {
          "internalType": "uint256",
          "name": "",
          "type": "uint256"
        }
      ],
      "stateMutability": "view",
      "type": "function"
    },
    {
      "inputs": [],
      "name": "getLastTimeStamp",
      "outputs": [
        {
          "internalType": "uint256",
          "name": "",
          "type": "uint256"
        }
      ],
      "stateMutability": "view",
      "type": "function"
    },
    {
      "inputs": [],
      "name": "getLotteryEntryFee",
      "outputs": [
        {
          "internalType": "uint256",
          "name": "",
          "type": "uint256"
        }
      ],
      "stateMutability": "view",
      "type": "function"
    },
    {
      "inputs": [],
      "name": "getLotteryState",
      "outputs": [
        {
          "internalType": "enum Lottery.LotteryState",
          "name": "",
          "type": "uint8"
        }
      ],
      "stateMutability": "view",
      "type": "function"
    },
    {
      "inputs": [],
      "name": "getNumWords",
      "outputs": [
        {
          "internalType": "uint256",
          "name": "",
          "type": "uint256"
        }
      ],
      "stateMutability": "pure",
      "type": "function"
    },
    {
      "inputs": [],
      "name": "getNumberOfPlayers",
      "outputs": [
        {
          "internalType": "uint256",
          "name": "",
          "type": "uint256"
        }
      ],
      "stateMutability": "view",
      "type": "function"
    },
    {
      "inputs": [],
      "name": "getPlayers",
      "outputs": [
        {
          "internalType": "address payable[]",
          "name": "",
          "type": "address[]"
        }
      ],
      "stateMutability": "view",
      "type": "function"
    },
    {
      "inputs": [],
      "name": "getRecentWinner",
      "outputs": [
        {
          "internalType": "address",
          "name": "",
          "type": "address"
        }
      ],
      "stateMutability": "view",
      "type": "function"
    },
    {
      "inputs": [],
      "name": "getRequestConfirmations",
      "outputs": [
        {
          "internalType": "uint256",
          "name": "",
          "type": "uint256"
        }
      ],
      "stateMutability": "pure",
      "type": "function"
    },
    {
      "inputs": [],
      "name": "owner",
      "outputs": [
        {
          "internalType": "address",
          "name": "",
          "type": "address"
        }
      ],
      "stateMutability": "view",
      "type": "function"
    },
    {
      "inputs": [
        {
          "internalType": "bytes",
          "name": "",
          "type": "bytes"
        }
      ],
      "name": "performUpkeep",
      "outputs": [],
      "stateMutability": "nonpayable",
      "type": "function"
    },
    {
      "inputs": [
        {
          "internalType": "uint256",
          "name": "requestId",
          "type": "uint256"
        },
        {
          "internalType": "uint256[]",
          "name": "randomWords",
          "type": "uint256[]"
        }
      ],
      "name": "rawFulfillRandomWords",
      "outputs": [],
      "stateMutability": "nonpayable",
      "type": "function"
    },
    {
      "inputs": [],
      "name": "s_vrfCoordinator",
      "outputs": [
        {
          "internalType": "contract IVRFCoordinatorV2Plus",
          "name": "",
          "type": "address"
        }
      ],
      "stateMutability": "view",
      "type": "function"
    },
    {
      "inputs": [
        {
          "internalType": "address",
          "name": "_vrfCoordinator",
          "type": "address"
        }
      ],
      "name": "setCoordinator",
      "outputs": [],
      "stateMutability": "nonpayable",
      "type": "function"
    },
    {
      "inputs": [
        {
          "internalType": "uint256",
          "name": "newInterval",
          "type": "uint256"
        }
      ],
      "name": "setInterval",
      "outputs": [],
      "stateMutability": "nonpayable",
      "type": "function"
    },
    {
      "inputs": [
        {
          "internalType": "uint256",
          "name": "newEntryFee",
          "type": "uint256"
        }
      ],
      "name": "setLotteryEntryFee",
      "outputs": [],
      "stateMutability": "nonpayable",
      "type": "function"
    },
    {
      "inputs": [
        {
          "internalType": "uint8",
          "name": "_minNoOfPlayers",
          "type": "uint8"
        }
      ],
      "name": "setMinNoOfPlayers",
      "outputs": [],
      "stateMutability": "nonpayable",
      "type": "function"
    },
    {
      "inputs": [
        {
          "internalType": "address",
          "name": "to",
          "type": "address"
        }
      ],
      "name": "transferOwnership",
      "outputs": [],
      "stateMutability": "nonpayable",
      "type": "function"
    }
  ],
  "bytecode": "0x60e060405234801561001057600080fd5b5060405161152738038061152783398101604081905261002f916101ef565b8633806000816100865760405162461bcd60e51b815260206004820152601860248201527f43616e6e6f7420736574206f776e657220746f207a65726f000000000000000060448201526064015b60405180910390fd5b600080546001600160a01b0319166001600160a01b03848116919091179091558116156100b6576100b681610146565b5050506001600160a01b0381166100e05760405163d92e233d60e01b815260040160405180910390fd5b600280546001600160a01b03929092166001600160a01b031990921691909117905560039590955560809390935260a09190915263ffffffff1660c0526004556009805460ff9290921660ff19928316179055600580549091169055504260065561027f565b336001600160a01b0382160361019e5760405162461bcd60e51b815260206004820152601760248201527f43616e6e6f74207472616e7366657220746f2073656c66000000000000000000604482015260640161007d565b600180546001600160a01b0319166001600160a01b0383811691821790925560008054604051929316917fed8889f560326eb138920d842192f0eb3dd22b4f139c87a2c57538e05bae12789190a350565b600080600080600080600060e0888a03121561020a57600080fd5b87516001600160a01b038116811461022157600080fd5b602089015160408a015160608b015160808c0151939a509198509650945063ffffffff8116811461025157600080fd5b60a089015160c08a0151919450925060ff8116811461026f57600080fd5b8091505092959891949750929550565b60805160a05160c0516112796102ae60003960006105d50152600061057d015260006105a001526112796000f3fe6080604052600436106101665760003560e01c806379ba5097116100d1578063a6f9dae11161008a578063c8e2001611610064578063c8e20016146103d1578063db2e21bc146103f1578063f2fde38b14610406578063fd6673f51461042657600080fd5b8063a6f9dae114610394578063c1af5785146103b4578063c1c244e8146103bc57600080fd5b806379ba5097146102f75780638b5b9ccc1461030c5780638da5cb5b146103215780638ea981171461033f57806391ad27b41461035f5780639eccacf61461037457600080fd5b806353a2c19a1161012357806353a2c19a1461024e57806353b97573146102625780635f1b0fd8146102825780636b68c03c146102965780636e04ff0d146102b65780636f9fb98a146102e457600080fd5b80630a3b4cbe1461016b5780631fe543e31461019657806322a90082146101b85780633af8aef2146101d85780634585e33b146101f7578063473f1ddc14610217575b600080fd5b34801561017757600080fd5b5061018061043b565b60405161018d9190610e4b565b60405180910390f35b3480156101a257600080fd5b506101b66101b1366004610e97565b61049d565b005b3480156101c457600080fd5b506101b66101d3366004610f18565b6104f2565b3480156101e457600080fd5b506003545b60405190815260200161018d565b34801561020357600080fd5b506101b6610212366004610f31565b610520565b34801561022357600080fd5b5060055461010090046001600160a01b03165b6040516001600160a01b03909116815260200161018d565b34801561025a57600080fd5b5060016101e9565b34801561026e57600080fd5b506101b661027d366004610fa5565b6106c4565b34801561028e57600080fd5b5060036101e9565b3480156102a257600080fd5b5060055460ff1660405161018d9190610fe5565b3480156102c257600080fd5b506102d66102d1366004611023565b6106e2565b60405161018d929190611122565b3480156102f057600080fd5b50476101e9565b34801561030357600080fd5b506101b6610762565b34801561031857600080fd5b5061018061080c565b34801561032d57600080fd5b506000546001600160a01b0316610236565b34801561034b57600080fd5b506101b661035a366004611145565b61086c565b34801561036b57600080fd5b506004546101e9565b34801561038057600080fd5b50600254610236906001600160a01b031681565b3480156103a057600080fd5b506101b66103af366004611145565b61095e565b6101b6610999565b3480156103c857600080fd5b506006546101e9565b3480156103dd57600080fd5b506101b66103ec366004610f18565b610a61565b3480156103fd57600080fd5b506101b6610a8f565b34801561041257600080fd5b506101b6610421366004611145565b610b21565b34801561043257600080fd5b506007546101e9565b6060600880548060200260200160405190810160405280929190818152602001828054801561049357602002820191906000526020600020905b81546001600160a01b03168152600190910190602001808311610475575b5050505050905090565b6002546001600160a01b031633146104e25760025460405163073e64fd60e21b81523360048201526001600160a01b0390911660248201526044015b60405180910390fd5b6104ed838383610b32565b505050565b6104fa610caa565b8060000361051b576040516305fabb6160e41b815260040160405180910390fd5b600455565b600061053a604051806020016040528060008152506106e2565b5090508061055b5760405163865676e360e01b815260040160405180910390fd5b600580546001919060ff1916828002179055506002546040805160c0810182527f000000000000000000000000000000000000000000000000000000000000000081527f000000000000000000000000000000000000000000000000000000000000000060208083019190915260038284015263ffffffff7f00000000000000000000000000000000000000000000000000000000000000001660608301526001608083015282519081019092526000808352926001600160a01b031691639b1c385e919060a082019061062e90610cff565b8152506040518263ffffffff1660e01b815260040161064d919061116e565b6020604051808303816000875af115801561066c573d6000803e3d6000fd5b505050506040513d601f19601f8201168201806040525081019061069091906111cb565b60405190915081907febf56642252004c18a776f30d528e7a0ce8c5db14b6596fb6550f630c8a24c6c90600090a250505050565b6106cc610caa565b6009805460ff191660ff92909216919091179055565b60006060818060055460ff1660028111156106ff576106ff610fcf565b14905060006004546006544261071591906111e4565b60095460075492909111925060ff1611154715158380156107335750825b801561073c5750815b80156107455750805b604080516020810190915260008152909890975095505050505050565b6001546001600160a01b031633146107b55760405162461bcd60e51b815260206004820152601660248201527526bab9ba10313290383937b837b9b2b21037bbb732b960511b60448201526064016104d9565b60008054336001600160a01b0319808316821784556001805490911690556040516001600160a01b0390921692909183917f8be0079c531659141344cd1fd0a4f28419497f9722a3daafe3b4186f6b6457e091a350565b60606007805480602002602001604051908101604052809291908181526020018280548015610493576020028201919060005260206000209081546001600160a01b03168152600190910190602001808311610475575050505050905090565b6000546001600160a01b0316331480159061089257506002546001600160a01b03163314155b156108e357336108aa6000546001600160a01b031690565b60025460405163061db9c160e01b81526001600160a01b03938416600482015291831660248301529190911660448201526064016104d9565b6001600160a01b03811661090a5760405163d92e233d60e01b815260040160405180910390fd5b600280546001600160a01b0319166001600160a01b0383169081179091556040519081527fd1a6a14209a385a964d036e404cb5cfb71f4000cdb03c9366292430787261be69060200160405180910390a150565b610966610caa565b6001600160a01b03811661098d57604051633649397d60e21b815260040160405180910390fd5b61099681610b21565b50565b600060055460ff1660028111156109b2576109b2610fcf565b146109d0576040516315ea643d60e21b815260040160405180910390fd5b6003543410156109f357604051632c1d501360e11b815260040160405180910390fd5b6007805460018101825560009182527fa66cc928b5edb82af9bd49922954155ab7b0942694bea4ce44661d9a8736c6880180546001600160a01b0319163390811790915560405190917f1d64fb5ba9f2548c5b98468d58f25b87b9e866afee0122e92d9fe722bf85076c91a2565b610a69610caa565b80600003610a8a57604051636fe6a4c960e01b815260040160405180910390fd5b600355565b610a97610caa565b476000610aac6000546001600160a01b031690565b6001600160a01b03168260405160006040518083038185875af1925050503d8060008114610af6576040519150601f19603f3d011682016040523d82523d6000602084013e610afb565b606091505b5050905080610b1d576040516312171d8360e31b815260040160405180910390fd5b5050565b610b29610caa565b61099681610d70565b60075460009083838381610b4857610b4861120b565b90506020020135610b599190611221565b9050600060078281548110610b7057610b7061120b565b600091825260208220015460058054610100600160a81b0319166101006001600160a01b03909316928302178155600880546001810182559084527ff3f7a9fe364faab93b216da50a3214154f22a0a2b415b23a84c8169e8b636ee30180546001600160a01b03191683179055805460ff191690554260065591504790610bf990600790610e19565b6000826001600160a01b03168260405160006040518083038185875af1925050503d8060008114610c46576040519150601f19603f3d011682016040523d82523d6000602084013e610c4b565b606091505b5050905080610c6d576040516312171d8360e31b815260040160405180910390fd5b6040516001600160a01b038416907f5b690ec4a06fe979403046eaeea5b3ce38524683c3001f662c8b5a829632f7df90600090a250505050505050565b6000546001600160a01b03163314610cfd5760405162461bcd60e51b815260206004820152601660248201527527b7363c9031b0b63630b1363290313c9037bbb732b960511b60448201526064016104d9565b565b60607f92fd13387c7fe7befbc38d303d6468778fb9731bc4583f17d92989c6fcfdeaaa82604051602401610d3891511515815260200190565b60408051601f198184030181529190526020810180516001600160e01b03166001600160e01b03199093169290921790915292915050565b336001600160a01b03821603610dc85760405162461bcd60e51b815260206004820152601760248201527f43616e6e6f74207472616e7366657220746f2073656c6600000000000000000060448201526064016104d9565b600180546001600160a01b0319166001600160a01b0383811691821790925560008054604051929316917fed8889f560326eb138920d842192f0eb3dd22b4f139c87a2c57538e05bae12789190a350565b508054600082559060005260206000209081019061099691905b80821115610e475760008155600101610e33565b5090565b602080825282518282018190526000918401906040840190835b81811015610e8c5783516001600160a01b0316835260209384019390920191600101610e65565b509095945050505050565b600080600060408486031215610eac57600080fd5b83359250602084013567ffffffffffffffff811115610eca57600080fd5b8401601f81018613610edb57600080fd5b803567ffffffffffffffff811115610ef257600080fd5b8660208260051b8401011115610f0757600080fd5b939660209190910195509293505050565b600060208284031215610f2a57600080fd5b5035919050565b60008060208385031215610f4457600080fd5b823567ffffffffffffffff811115610f5b57600080fd5b8301601f81018513610f6c57600080fd5b803567ffffffffffffffff811115610f8357600080fd5b856020828401011115610f9557600080fd5b6020919091019590945092505050565b600060208284031215610fb757600080fd5b813560ff81168114610fc857600080fd5b9392505050565b634e487b7160e01b600052602160045260246000fd5b602081016003831061100757634e487b7160e01b600052602160045260246000fd5b91905290565b634e487b7160e01b600052604160045260246000fd5b60006020828403121561103557600080fd5b813567ffffffffffffffff81111561104c57600080fd5b8201601f8101841361105d57600080fd5b803567ffffffffffffffff8111156110775761107761100d565b604051601f8201601f19908116603f0116810167ffffffffffffffff811182821017156110a6576110a661100d565b6040528181528282016020018610156110be57600080fd5b81602084016020830137600091810160200191909152949350505050565b6000815180845260005b81811015611102576020818501810151868301820152016110e6565b506000602082860101526020601f19601f83011685010191505092915050565b821515815260406020820152600061113d60408301846110dc565b949350505050565b60006020828403121561115757600080fd5b81356001600160a01b0381168114610fc857600080fd5b60208152815160208201526020820151604082015261ffff604083015116606082015263ffffffff606083015116608082015263ffffffff60808301511660a0820152600060a083015160c08084015261113d60e08401826110dc565b6000602082840312156111dd57600080fd5b5051919050565b8181038181111561120557634e487b7160e01b600052601160045260246000fd5b92915050565b634e487b7160e01b600052603260045260246000fd5b60008261123e57634e487b7160e01b600052601260045260246000fd5b50069056fea264697066735822122031bb9f6cb8444256e86681ec790dc7b428941d1f57572d96ccc846b892312cd464736f6c634300081c0033",
  "linkReferences": {},
  "deployedLinkReferences": {}
}