{
  "_format": "hh3-artifact-1",
  "contractName": "Lottery",
  "sourceName": "contracts/Lottery.sol",
  "abi": [
    {
      "inputs": [
        {
          "internalType": "address",
          "name": "_vrfCoordinator",
          "type": "address"
        },
        {
          "internalType": "uint256",
          "name": "_lotteryEntryFee",
          "type": "uint256"
        },
        {
          "internalType": "uint256",
          "name": "_subscriptionId",
          "type": "uint256"
        },
        {
          "internalType": "bytes32",
          "name": "_keyHash",
          "type": "bytes32"
        },
        {
          "internalType": "uint32",
          "name": "_callbackGasLimit",
          "type": "uint32"
        },
        {
          "internalType": "uint256",
          "name": "_interval",
          "type": "uint256"
        }
      ],
      "stateMutability": "nonpayable",
      "type": "constructor"
    },
    {
      "inputs": [
        {
          "internalType": "address",
          "name": "have",
          "type": "address"
        },
        {
          "internalType": "address",
          "name": "want",
          "type": "address"
        }
      ],
      "name": "OnlyCoordinatorCanFulfill",
      "type": "error"
    },
    {
      "inputs": [
        {
          "internalType": "address",
          "name": "have",
          "type": "address"
        },
        {
          "internalType": "address",
          "name": "owner",
          "type": "address"
        },
        {
          "internalType": "address",
          "name": "coordinator",
          "type": "address"
        }
      ],
      "name": "OnlyOwnerOrCoordinator",
      "type": "error"
    },
    {
      "inputs": [],
      "name": "ZeroAddress",
      "type": "error"
    },
    {
      "anonymous": false,
      "inputs": [
        {
          "indexed": false,
          "internalType": "address",
          "name": "vrfCoordinator",
          "type": "address"
        }
      ],
      "name": "CoordinatorSet",
      "type": "event"
    },
    {
      "anonymous": false,
      "inputs": [
        {
          "indexed": true,
          "internalType": "address",
          "name": "player",
          "type": "address"
        }
      ],
      "name": "LotteryEnter",
      "type": "event"
    },
    {
      "anonymous": false,
      "inputs": [
        {
          "indexed": true,
          "internalType": "address",
          "name": "from",
          "type": "address"
        },
        {
          "indexed": true,
          "internalType": "address",
          "name": "to",
          "type": "address"
        }
      ],
      "name": "OwnershipTransferRequested",
      "type": "event"
    },
    {
      "anonymous": false,
      "inputs": [
        {
          "indexed": true,
          "internalType": "address",
          "name": "from",
          "type": "address"
        },
        {
          "indexed": true,
          "internalType": "address",
          "name": "to",
          "type": "address"
        }
      ],
      "name": "OwnershipTransferred",
      "type": "event"
    },
    {
      "anonymous": false,
      "inputs": [
        {
          "indexed": true,
          "internalType": "uint256",
          "name": "requestId",
          "type": "uint256"
        }
      ],
      "name": "RequestedLotteryWinner",
      "type": "event"
    },
    {
      "anonymous": false,
      "inputs": [
        {
          "indexed": true,
          "internalType": "address",
          "name": "winner",
          "type": "address"
        }
      ],
      "name": "WinnerPicked",
      "type": "event"
    },
    {
      "inputs": [],
      "name": "acceptOwnership",
      "outputs": [],
      "stateMutability": "nonpayable",
      "type": "function"
    },
    {
      "inputs": [
        {
          "internalType": "bytes",
          "name": "",
          "type": "bytes"
        }
      ],
      "name": "checkUpkeep",
      "outputs": [
        {
          "internalType": "bool",
          "name": "upkeepNeeded",
          "type": "bool"
        },
        {
          "internalType": "bytes",
          "name": "",
          "type": "bytes"
        }
      ],
      "stateMutability": "view",
      "type": "function"
    },
    {
      "inputs": [],
      "name": "enterLottery",
      "outputs": [],
      "stateMutability": "payable",
      "type": "function"
    },
    {
      "inputs": [],
      "name": "getLastTimeStamp",
      "outputs": [
        {
          "internalType": "uint256",
          "name": "",
          "type": "uint256"
        }
      ],
      "stateMutability": "view",
      "type": "function"
    },
    {
      "inputs": [],
      "name": "getLotteryEntryFee",
      "outputs": [
        {
          "internalType": "uint256",
          "name": "",
          "type": "uint256"
        }
      ],
      "stateMutability": "view",
      "type": "function"
    },
    {
      "inputs": [],
      "name": "getNoOfPlayer",
      "outputs": [
        {
          "internalType": "uint256",
          "name": "",
          "type": "uint256"
        }
      ],
      "stateMutability": "view",
      "type": "function"
    },
    {
      "inputs": [],
      "name": "getNumWords",
      "outputs": [
        {
          "internalType": "uint256",
          "name": "",
          "type": "uint256"
        }
      ],
      "stateMutability": "pure",
      "type": "function"
    },
    {
      "inputs": [],
      "name": "getPlayers",
      "outputs": [
        {
          "internalType": "address payable[]",
          "name": "",
          "type": "address[]"
        }
      ],
      "stateMutability": "view",
      "type": "function"
    },
    {
      "inputs": [],
      "name": "getRecentWinner",
      "outputs": [
        {
          "internalType": "address",
          "name": "",
          "type": "address"
        }
      ],
      "stateMutability": "view",
      "type": "function"
    },
    {
      "inputs": [],
      "name": "getRequestConfirmations",
      "outputs": [
        {
          "internalType": "uint256",
          "name": "",
          "type": "uint256"
        }
      ],
      "stateMutability": "pure",
      "type": "function"
    },
    {
      "inputs": [],
      "name": "lotteryState",
      "outputs": [
        {
          "internalType": "enum Lottery.LotteryState",
          "name": "",
          "type": "uint8"
        }
      ],
      "stateMutability": "view",
      "type": "function"
    },
    {
      "inputs": [],
      "name": "owner",
      "outputs": [
        {
          "internalType": "address",
          "name": "",
          "type": "address"
        }
      ],
      "stateMutability": "view",
      "type": "function"
    },
    {
      "inputs": [
        {
          "internalType": "bytes",
          "name": "",
          "type": "bytes"
        }
      ],
      "name": "performUpkeep",
      "outputs": [],
      "stateMutability": "nonpayable",
      "type": "function"
    },
    {
      "inputs": [
        {
          "internalType": "uint256",
          "name": "requestId",
          "type": "uint256"
        },
        {
          "internalType": "uint256[]",
          "name": "randomWords",
          "type": "uint256[]"
        }
      ],
      "name": "rawFulfillRandomWords",
      "outputs": [],
      "stateMutability": "nonpayable",
      "type": "function"
    },
    {
      "inputs": [],
      "name": "s_vrfCoordinator",
      "outputs": [
        {
          "internalType": "contract IVRFCoordinatorV2Plus",
          "name": "",
          "type": "address"
        }
      ],
      "stateMutability": "view",
      "type": "function"
    },
    {
      "inputs": [
        {
          "internalType": "address",
          "name": "_vrfCoordinator",
          "type": "address"
        }
      ],
      "name": "setCoordinator",
      "outputs": [],
      "stateMutability": "nonpayable",
      "type": "function"
    },
    {
      "inputs": [
        {
          "internalType": "address",
          "name": "to",
          "type": "address"
        }
      ],
      "name": "transferOwnership",
      "outputs": [],
      "stateMutability": "nonpayable",
      "type": "function"
    }
  ],
  "bytecode": "0x610120604052348015610010575f5ffd5b506040516112c13803806112c183398101604081905261002f916101d9565b8533805f816100855760405162461bcd60e51b815260206004820152601860248201527f43616e6e6f7420736574206f776e657220746f207a65726f000000000000000060448201526064015b60405180910390fd5b5f80546001600160a01b0319166001600160a01b03848116919091179091558116156100b4576100b481610131565b5050506001600160a01b0381166100de5760405163d92e233d60e01b815260040160405180910390fd5b600280546001600160a01b0319166001600160a01b039290921691909117905560809490945260a09290925260c05263ffffffff1660e0526004805460ff60a01b1916905542600555610100525061024b565b336001600160a01b038216036101895760405162461bcd60e51b815260206004820152601760248201527f43616e6e6f74207472616e7366657220746f2073656c66000000000000000000604482015260640161007c565b600180546001600160a01b0319166001600160a01b038381169182179092555f8054604051929316917fed8889f560326eb138920d842192f0eb3dd22b4f139c87a2c57538e05bae12789190a350565b5f5f5f5f5f5f60c087890312156101ee575f5ffd5b86516001600160a01b0381168114610204575f5ffd5b6020880151604089015160608a015160808b01519399509197509550935063ffffffff81168114610233575f5ffd5b60a09790970151959894975092959194919391925050565b60805160a05160c05160e0516101005161103261028f5f395f61054501525f61043201525f6103da01525f6103fd01525f818161012d015261085101526110325ff3fe6080604052600436106100fa575f3560e01c806375d0ae51116100925780638ea98117116100625780638ea981171461028e5780639eccacf6146102ad578063c1af5785146102cc578063c1c244e8146102d4578063f2fde38b146102e8575f5ffd5b806375d0ae511461022957806379ba50971461023d5780638b5b9ccc146102515780638da5cb5b14610272575f5ffd5b806353a2c19a116100cd57806353a2c19a146101b05780635f1b0fd8146101c35780636939864b146101d65780636e04ff0d146101fc575f5ffd5b80631fe543e3146100fe5780633af8aef21461011f5780634585e33b14610160578063473f1ddc1461017f575b5f5ffd5b348015610109575f5ffd5b5061011d610118366004610c80565b610307565b005b34801561012a575f5ffd5b507f00000000000000000000000000000000000000000000000000000000000000005b6040519081526020015b60405180910390f35b34801561016b575f5ffd5b5061011d61017a366004610cfa565b61035c565b34801561018a575f5ffd5b506004546001600160a01b03165b6040516001600160a01b039091168152602001610157565b3480156101bb575f5ffd5b50600161014d565b3480156101ce575f5ffd5b50600361014d565b3480156101e1575f5ffd5b50600454600160a01b900460ff166040516101579190610d7c565b348015610207575f5ffd5b5061021b610216366004610db6565b61051c565b604051610157929190610e97565b348015610234575f5ffd5b5060035461014d565b348015610248575f5ffd5b5061011d6105b6565b34801561025c575f5ffd5b5061026561065f565b6040516101579190610eb9565b34801561027d575f5ffd5b505f546001600160a01b0316610198565b348015610299575f5ffd5b5061011d6102a8366004610f04565b6106bf565b3480156102b8575f5ffd5b50600254610198906001600160a01b031681565b61011d6107af565b3480156102df575f5ffd5b5060055461014d565b3480156102f3575f5ffd5b5061011d610302366004610f04565b61092c565b6002546001600160a01b0316331461034c5760025460405163073e64fd60e21b81523360048201526001600160a01b0390911660248201526044015b60405180910390fd5b610357838383610940565b505050565b5f61037460405180602001604052805f81525061051c565b509050806103b85760405162461bcd60e51b8152602060048201526011602482015270155c1ad9595c081b9bdd081b9959591959607a1b6044820152606401610343565b6004805460ff60a01b1916600160a01b1790556002546040805160c0810182527f000000000000000000000000000000000000000000000000000000000000000081527f000000000000000000000000000000000000000000000000000000000000000060208083019190915260038284015263ffffffff7f00000000000000000000000000000000000000000000000000000000000000001660608301526001608083015282519081019092525f808352926001600160a01b031691639b1c385e919060a082019061048a90610a9c565b8152506040518263ffffffff1660e01b81526004016104a99190610f31565b6020604051808303815f875af11580156104c5573d5f5f3e3d5ffd5b505050506040513d601f19601f820116820180604052508101906104e99190610f8d565b60405190915081907febf56642252004c18a776f30d528e7a0ce8c5db14b6596fb6550f630c8a24c6c905f90a250505050565b5f60608180600454600160a01b900460ff16600281111561053f5761053f610d68565b1490505f7f0000000000000000000000000000000000000000000000000000000000000000600554426105729190610fa4565b6003549110915015154715158380156105885750825b80156105915750815b801561059a5750805b60408051602081019091525f8152909890975095505050505050565b6001546001600160a01b031633146106095760405162461bcd60e51b815260206004820152601660248201527526bab9ba10313290383937b837b9b2b21037bbb732b960511b6044820152606401610343565b5f8054336001600160a01b0319808316821784556001805490911690556040516001600160a01b0390921692909183917f8be0079c531659141344cd1fd0a4f28419497f9722a3daafe3b4186f6b6457e091a350565b606060038054806020026020016040519081016040528092919081815260200182805480156106b557602002820191905f5260205f20905b81546001600160a01b03168152600190910190602001808311610697575b5050505050905090565b5f546001600160a01b031633148015906106e457506002546001600160a01b03163314155b1561073457336106fb5f546001600160a01b031690565b60025460405163061db9c160e01b81526001600160a01b0393841660048201529183166024830152919091166044820152606401610343565b6001600160a01b03811661075b5760405163d92e233d60e01b815260040160405180910390fd5b600280546001600160a01b0319166001600160a01b0383169081179091556040519081527fd1a6a14209a385a964d036e404cb5cfb71f4000cdb03c9366292430787261be69060200160405180910390a150565b5f600454600160a01b900460ff1660028111156107ce576107ce610d68565b1461084f5760405162461bcd60e51b8152602060048201526044602482018190527f4c6f7474657279206973206e6f74206f70656e2c20706c656173652070617274908201527f6963697061746520696e206f74686572206c6f7474657269657320617661696c60648201526361626c6560e01b608482015260a401610343565b7f00000000000000000000000000000000000000000000000000000000000000003410156108bf5760405162461bcd60e51b815260206004820152601f60248201527f4e6f7420656e6f7567682045544820746f20656e746572206c6f7474657279006044820152606401610343565b600380546001810182555f9182527fc2575a0e9e593c00f959f8c92f12db2869c3395a3b0502d05e2516446f71f85b0180546001600160a01b0319163390811790915560405190917f1d64fb5ba9f2548c5b98468d58f25b87b9e866afee0122e92d9fe722bf85076c91a2565b610934610b0d565b61093d81610b61565b50565b6003545f908383838161095557610955610fc9565b905060200201356109669190610fdd565b90505f6003828154811061097c5761097c610fc9565b5f91825260208083209190910154600480546001600160a81b0319166001600160a01b039092169182179055604080519384529183019182905291519192506109c89160039190610c09565b50426005556040515f906001600160a01b0383169047908381818185875af1925050503d805f8114610a15576040519150601f19603f3d011682016040523d82523d5f602084013e610a1a565b606091505b5050905080610a5d5760405162461bcd60e51b815260206004820152600f60248201526e151c985b9cd9995c8819985a5b1959608a1b6044820152606401610343565b6004546040516001600160a01b03909116907f5b690ec4a06fe979403046eaeea5b3ce38524683c3001f662c8b5a829632f7df905f90a2505050505050565b60607f92fd13387c7fe7befbc38d303d6468778fb9731bc4583f17d92989c6fcfdeaaa82604051602401610ad591511515815260200190565b60408051601f198184030181529190526020810180516001600160e01b03166001600160e01b03199093169290921790915292915050565b5f546001600160a01b03163314610b5f5760405162461bcd60e51b815260206004820152601660248201527527b7363c9031b0b63630b1363290313c9037bbb732b960511b6044820152606401610343565b565b336001600160a01b03821603610bb95760405162461bcd60e51b815260206004820152601760248201527f43616e6e6f74207472616e7366657220746f2073656c660000000000000000006044820152606401610343565b600180546001600160a01b0319166001600160a01b038381169182179092555f8054604051929316917fed8889f560326eb138920d842192f0eb3dd22b4f139c87a2c57538e05bae12789190a350565b828054828255905f5260205f20908101928215610c5c579160200282015b82811115610c5c57825182546001600160a01b0319166001600160a01b03909116178255602090920191600190910190610c27565b50610c68929150610c6c565b5090565b5b80821115610c68575f8155600101610c6d565b5f5f5f60408486031215610c92575f5ffd5b83359250602084013567ffffffffffffffff811115610caf575f5ffd5b8401601f81018613610cbf575f5ffd5b803567ffffffffffffffff811115610cd5575f5ffd5b8660208260051b8401011115610ce9575f5ffd5b939660209190910195509293505050565b5f5f60208385031215610d0b575f5ffd5b823567ffffffffffffffff811115610d21575f5ffd5b8301601f81018513610d31575f5ffd5b803567ffffffffffffffff811115610d47575f5ffd5b856020828401011115610d58575f5ffd5b6020919091019590945092505050565b634e487b7160e01b5f52602160045260245ffd5b6020810160038310610d9c57634e487b7160e01b5f52602160045260245ffd5b91905290565b634e487b7160e01b5f52604160045260245ffd5b5f60208284031215610dc6575f5ffd5b813567ffffffffffffffff811115610ddc575f5ffd5b8201601f81018413610dec575f5ffd5b803567ffffffffffffffff811115610e0657610e06610da2565b604051601f8201601f19908116603f0116810167ffffffffffffffff81118282101715610e3557610e35610da2565b604052818152828201602001861015610e4c575f5ffd5b816020840160208301375f91810160200191909152949350505050565b5f81518084528060208401602086015e5f602082860101526020601f19601f83011685010191505092915050565b8215158152604060208201525f610eb16040830184610e69565b949350505050565b602080825282518282018190525f918401906040840190835b81811015610ef95783516001600160a01b0316835260209384019390920191600101610ed2565b509095945050505050565b5f60208284031215610f14575f5ffd5b81356001600160a01b0381168114610f2a575f5ffd5b9392505050565b60208152815160208201526020820151604082015261ffff604083015116606082015263ffffffff606083015116608082015263ffffffff60808301511660a08201525f60a083015160c080840152610eb160e0840182610e69565b5f60208284031215610f9d575f5ffd5b5051919050565b81810381811115610fc357634e487b7160e01b5f52601160045260245ffd5b92915050565b634e487b7160e01b5f52603260045260245ffd5b5f82610ff757634e487b7160e01b5f52601260045260245ffd5b50069056fea2646970667358221220da13a229b6bf7755eea0dce2192304ddbb8dc8d9eff06957cca43da77d974eec64736f6c634300081c0033",
  "linkReferences": {},
  "deployedLinkReferences": {},
  "immutableReferences": {
    "611": [
      {
        "length": 32,
        "start": 301
      },
      {
        "length": 32,
        "start": 2129
      }
    ],
    "621": [
      {
        "length": 32,
        "start": 1021
      }
    ],
    "623": [
      {
        "length": 32,
        "start": 986
      }
    ],
    "625": [
      {
        "length": 32,
        "start": 1074
      }
    ],
    "635": [
      {
        "length": 32,
        "start": 1349
      }
    ]
  },
  "inputSourceName": "project/contracts/Lottery.sol",
  "buildInfoId": "solc-0_8_28-95ae6cc0f51e3a7eaf44bf8107687681ba454327"
}